:020000040000FA
:020000000B28CB
:10000800DE00030E8312A0000A08A10010280C28A5
:100018004220A20083013E280C1C13281428212802
:10002800221817281A28831205141C288312051071
:10003800A2098E018F010C10212821088A00200EA8
:100048008300DE0E5E0E0900831210131016901640
:100058009011901010148E018F010C1083160C143F
:100068000B178B17080083168501870183128501FA
:0E007800870108003720282040280B2801347B
:02400E00C4FFED
:00000001FF
